{"contracts/StudentMicroloan.sol":{"StudentMicroloan":{"abi":[{"anonymous":false,"inputs":[{"indexed":false,"internalType":"uint256","name":"loanId","type":"uint256"},{"indexed":false,"internalType":"enum StudentMicroloan.LoanAction","name":"action","type":"uint8"},{"indexed":false,"internalType":"uint256","name":"amount","type":"uint256"},{"indexed":false,"internalType":"string","name":"status","type":"string"}],"name":"LoanLogged","type":"event"},{"inputs":[{"internalType":"uint256","name":"loanId","type":"uint256"}],"name":"getLoanEvents","outputs":[{"components":[{"internalType":"uint256","name":"loanId","type":"uint256"},{"internalType":"enum StudentMicroloan.LoanAction","name":"action","type":"uint8"},{"internalType":"uint256","name":"amount","type":"uint256"},{"internalType":"string","name":"status","type":"string"},{"internalType":"uint256","name":"timestamp","type":"uint256"}],"internalType":"struct StudentMicroloan.LoanEvent[]","name":"","type":"tuple[]"}],"stateMutability":"view","type":"function"},{"inputs":[{"internalType":"uint256","name":"","type":"uint256"},{"internalType":"uint256","name":"","type":"uint256"}],"name":"loanHistory","outputs":[{"internalType":"uint256","name":"loanId","type":"uint256"},{"internalType":"enum StudentMicroloan.LoanAction","name":"action","type":"uint8"},{"internalType":"uint256","name":"amount","type":"uint256"},{"internalType":"string","name":"status","type":"string"},{"internalType":"uint256","name":"timestamp","type":"uint256"}],"stateMutability":"view","type":"function"},{"inputs":[{"internalType":"uint256","name":"loanId","type":"uint256"},{"internalType":"enum StudentMicroloan.LoanAction","name":"action","type":"uint8"},{"internalType":"uint256","name":"amount","type":"uint256"},{"internalType":"string","name":"status","type":"string"}],"name":"logLoan","outputs":[],"stateMutability":"nonpayable","type":"function"}],"evm":{"bytecode":{"linkReferences":{},"object":"608060405234801561001057600080fd5b50610d53806100206000396000f3fe608060405234801561001057600080fd5b50600436106100415760003560e01c8063375d2eea14610046578063394623311461007a578063f69d0c4f146100aa575b600080fd5b610060600480360381019061005b9190610477565b6100c6565b6040516100719594939291906105cd565b60405180910390f35b610094600480360381019061008f9190610627565b6101ae565b6040516100a191906107f4565b60405180910390f35b6100c460048036038101906100bf9190610970565b61030a565b005b600060205281600052604060002081815481106100e257600080fd5b9060005260206000209060050201600091509150508060000154908060010160009054906101000a900460ff169080600201549080600301805461012590610a22565b80601f016020809104026020016040519081016040528092919081815260200182805461015190610a22565b801561019e5780601f106101735761010080835404028352916020019161019e565b820191906000526020600020905b81548152906001019060200180831161018157829003601f168201915b5050505050908060040154905085565b6060600080838152602001908152602001600020805480602002602001604051908101604052809291908181526020016000905b828210156102ff57838290600052602060002090600502016040518060a0016040529081600082015481526020016001820160009054906101000a900460ff166005811115610234576102336104c6565b5b6005811115610246576102456104c6565b5b81526020016002820154815260200160038201805461026490610a22565b80601f016020809104026020016040519081016040528092919081815260200182805461029090610a22565b80156102dd5780601f106102b2576101008083540402835291602001916102dd565b820191906000526020600020905b8154815290600101906020018083116102c057829003601f168201915b50505050508152602001600482015481525050815260200190600101906101e2565b505050509050919050565b60006040518060a001604052808681526020018560058111156103305761032f6104c6565b5b81526020018481526020018381526020014281525090506000808681526020019081526020016000208190806001815401808255809150506001900390600052602060002090600502016000909190919091506000820151816000015560208201518160010160006101000a81548160ff021916908360058111156103b8576103b76104c6565b5b02179055506040820151816002015560608201518160030190816103dc9190610bff565b506080820151816004015550507ffbd5bf4b946a6309e1afba3a1b345deae161f8ba506b223f0c9e6dffb794bf388585858560405161041e9493929190610cd1565b60405180910390a15050505050565b6000604051905090565b600080fd5b600080fd5b6000819050919050565b61045481610441565b811461045f57600080fd5b50565b6000813590506104718161044b565b92915050565b6000806040838503121561048e5761048d610437565b5b600061049c85828601610462565b92505060206104ad85828601610462565b9150509250929050565b6104c081610441565b82525050565b7f4e487b7100000000000000000000000000000000000000000000000000000000600052602160045260246000fd5b60068110610506576105056104c6565b5b50565b6000819050610517826104f5565b919050565b600061052782610509565b9050919050565b6105378161051c565b82525050565b600081519050919050565b600082825260208201905092915050565b60005b8381101561057757808201518184015260208101905061055c565b60008484015250505050565b6000601f19601f8301169050919050565b600061059f8261053d565b6105a98185610548565b93506105b9818560208601610559565b6105c281610583565b840191505092915050565b600060a0820190506105e260008301886104b7565b6105ef602083018761052e565b6105fc60408301866104b7565b818103606083015261060e8185610594565b905061061d60808301846104b7565b9695505050505050565b60006020828403121561063d5761063c610437565b5b600061064b84828501610462565b91505092915050565b600081519050919050565b600082825260208201905092915050565b6000819050602082019050919050565b61068981610441565b82525050565b6106988161051c565b82525050565b600082825260208201905092915050565b60006106ba8261053d565b6106c4818561069e565b93506106d4818560208601610559565b6106dd81610583565b840191505092915050565b600060a0830160008301516107006000860182610680565b506020830151610713602086018261068f565b5060408301516107266040860182610680565b506060830151848203606086015261073e82826106af565b91505060808301516107536080860182610680565b508091505092915050565b600061076a83836106e8565b905092915050565b6000602082019050919050565b600061078a82610654565b610794818561065f565b9350836020820285016107a685610670565b8060005b858110156107e257848403895281516107c3858261075e565b94506107ce83610772565b925060208a019950506001810190506107aa565b50829750879550505050505092915050565b6000602082019050818103600083015261080e818461077f565b905092915050565b6006811061082357600080fd5b50565b60008135905061083581610816565b92915050565b600080fd5b600080fd5b7f4e487b7100000000000000000000000000000000000000000000000000000000600052604160045260246000fd5b61087d82610583565b810181811067ffffffffffffffff8211171561089c5761089b610845565b5b80604052505050565b60006108af61042d565b90506108bb8282610874565b919050565b600067ffffffffffffffff8211156108db576108da610845565b5b6108e482610583565b9050602081019050919050565b82818337600083830152505050565b600061091361090e846108c0565b6108a5565b90508281526020810184848401111561092f5761092e610840565b5b61093a8482856108f1565b509392505050565b600082601f8301126109575761095661083b565b5b8135610967848260208601610900565b91505092915050565b6000806000806080858703121561098a57610989610437565b5b600061099887828801610462565b94505060206109a987828801610826565b93505060406109ba87828801610462565b925050606085013567ffffffffffffffff8111156109db576109da61043c565b5b6109e787828801610942565b91505092959194509250565b7f4e487b7100000000000000000000000000000000000000000000000000000000600052602260045260246000fd5b60006002820490506001821680610a3a57607f821691505b602082108103610a4d57610a4c6109f3565b5b50919050565b60008190508160005260206000209050919050565b60006020601f8301049050919050565b600082821b905092915050565b600060088302610ab57fffffffffffffffffffffffffffffffffffffffffffffffffffffffffffffffff82610a78565b610abf8683610a78565b95508019841693508086168417925050509392505050565b6000819050919050565b6000610afc610af7610af284610441565b610ad7565b610441565b9050919050565b6000819050919050565b610b1683610ae1565b610b2a610b2282610b03565b848454610a85565b825550505050565b600090565b610b3f610b32565b610b4a818484610b0d565b505050565b5b81811015610b6e57610b63600082610b37565b600181019050610b50565b5050565b601f821115610bb357610b8481610a53565b610b8d84610a68565b81016020851015610b9c578190505b610bb0610ba885610a68565b830182610b4f565b50505b505050565b600082821c905092915050565b6000610bd660001984600802610bb8565b1980831691505092915050565b6000610bef8383610bc5565b9150826002028217905092915050565b610c088261053d565b67ffffffffffffffff811115610c2157610c20610845565b5b610c2b8254610a22565b610c36828285610b72565b600060209050601f831160018114610c695760008415610c57578287015190505b610c618582610be3565b865550610cc9565b601f198416610c7786610a53565b60005b82811015610c9f57848901518255600182019150602085019450602081019050610c7a565b86831015610cbc5784890151610cb8601f891682610bc5565b8355505b6001600288020188555050505b505050505050565b6000608082019050610ce660008301876104b7565b610cf3602083018661052e565b610d0060408301856104b7565b8181036060830152610d128184610594565b90509594505050505056fea2646970667358221220aebf7598a273ba5162f2a3b9b2edb517ba26a39d03765c78f2e0801d4aaa1df264736f6c63430008180033","opcodes":"PUSH1 0x80 PUSH1 0x40 MSTORE CALLVALUE DUP1 ISZERO PUSH2 0x10 JUMPI PUSH1 0x0 DUP1 REVERT JUMPDEST POP PUSH2 0xD53 DUP1 PUSH2 0x20 PUSH1 0x0 CODECOPY PUSH1 0x0 RETURN INVALID PUSH1 0x80 PUSH1 0x40 MSTORE CALLVALUE DUP1 ISZERO PUSH2 0x10 JUMPI PUSH1 0x0 DUP1 REVERT JUMPDEST POP PUSH1 0x4 CALLDATASIZE LT PUSH2 0x41 JUMPI PUSH1 0x0 CALLDATALOAD PUSH1 0xE0 SHR DUP1 PUSH4 0x375D2EEA EQ PUSH2 0x46 JUMPI DUP1 PUSH4 0x39462331 EQ PUSH2 0x7A JUMPI DUP1 PUSH4 0xF69D0C4F EQ PUSH2 0xAA JUMPI JUMPDEST PUSH1 0x0 DUP1 REVERT JUMPDEST PUSH2 0x60 PUSH1 0x4 DUP1 CALLDATASIZE SUB DUP2 ADD SWAP1 PUSH2 0x5B SWAP2 SWAP1 PUSH2 0x477 JUMP JUMPDEST PUSH2 0xC6 JUMP JUMPDEST PUSH1 0x40 MLOAD PUSH2 0x71 SWAP6 SWAP5 SWAP4 SWAP3 SWAP2 SWAP1 PUSH2 0x5CD JUMP JUMPDEST PUSH1 0x40 MLOAD DUP1 SWAP2 SUB SWAP1 RETURN JUMPDEST PUSH2 0x94 PUSH1 0x4 DUP1 CALLDATASIZE SUB DUP2 ADD SWAP1 PUSH2 0x8F SWAP2 SWAP1 PUSH2 0x627 JUMP JUMPDEST PUSH2 0x1AE JUMP JUMPDEST PUSH1 0x40 MLOAD PUSH2 0xA1 SWAP2 SWAP1 PUSH2 0x7F4 JUMP JUMPDEST PUSH1 0x40 MLOAD DUP1 SWAP2 SUB SWAP1 RETURN JUMPDEST PUSH2 0xC4 PUSH1 0x4 DUP1 CALLDATASIZE SUB DUP2 ADD SWAP1 PUSH2 0xBF SWAP2 SWAP1 PUSH2 0x970 JUMP JUMPDEST PUSH2 0x30A JUMP JUMPDEST STOP JUMPDEST PUSH1 0x0 PUSH1 0x20 MSTORE DUP2 PUSH1 0x0 MSTORE PUSH1 0x40 PUSH1 0x0 KECCAK256 DUP2 DUP2 SLOAD DUP2 LT PUSH2 0xE2 JUMPI PUSH1 0x0 DUP1 REVERT JUMPDEST SWAP1 PUSH1 0x0 MSTORE PUSH1 0x20 PUSH1 0x0 KECCAK256 SWAP1 PUSH1 0x5 MUL ADD PUSH1 0x0 SWAP2 POP SWAP2 POP POP DUP1 PUSH1 0x0 ADD SLOAD SWAP1 DUP1 PUSH1 0x1 ADD PUSH1 0x0 SWAP1 SLOAD SWAP1 PUSH2 0x100 EXP SWAP1 DIV PUSH1 0xFF AND SWAP1 DUP1 PUSH1 0x2 ADD SLOAD SWAP1 DUP1 PUSH1 0x3 ADD DUP1 SLOAD PUSH2 0x125 SWAP1 PUSH2 0xA22 JUMP JUMPDEST DUP1 PUSH1 0x1F ADD PUSH1 0x20 DUP1 SWAP2 DIV MUL PUSH1 0x20 ADD PUSH1 0x40 MLOAD SWAP1 DUP2 ADD PUSH1 0x40 MSTORE DUP1 SWAP3 SWAP2 SWAP1 DUP2 DUP2 MSTORE PUSH1 0x20 ADD DUP3 DUP1 SLOAD PUSH2 0x151 SWAP1 PUSH2 0xA22 JUMP JUMPDEST DUP1 ISZERO PUSH2 0x19E JUMPI DUP1 PUSH1 0x1F LT PUSH2 0x173 JUMPI PUSH2 0x100 DUP1 DUP4 SLOAD DIV MUL DUP4 MSTORE SWAP2 PUSH1 0x20 ADD SWAP2 PUSH2 0x19E JUMP JUMPDEST DUP3 ADD SWAP2 SWAP1 PUSH1 0x0 MSTORE PUSH1 0x20 PUSH1 0x0 KECCAK256 SWAP1 JUMPDEST DUP2 SLOAD DUP2 MSTORE SWAP1 PUSH1 0x1 ADD SWAP1 PUSH1 0x20 ADD DUP1 DUP4 GT PUSH2 0x181 JUMPI DUP3 SWAP1 SUB PUSH1 0x1F AND DUP3 ADD SWAP2 JUMPDEST POP POP POP POP POP SWAP1 DUP1 PUSH1 0x4 ADD SLOAD SWAP1 POP DUP6 JUMP JUMPDEST PUSH1 0x60 PUSH1 0x0 DUP1 DUP4 DUP2 MSTORE PUSH1 0x20 ADD SWAP1 DUP2 MSTORE PUSH1 0x20 ADD PUSH1 0x0 KECCAK256 DUP1 SLOAD DUP1 PUSH1 0x20 MUL PUSH1 0x20 ADD PUSH1 0x40 MLOAD SWAP1 DUP2 ADD PUSH1 0x40 MSTORE DUP1 SWAP3 SWAP2 SWAP1 DUP2 DUP2 MSTORE PUSH1 0x20 ADD PUSH1 0x0 SWAP1 JUMPDEST DUP3 DUP3 LT ISZERO PUSH2 0x2FF JUMPI DUP4 DUP3 SWAP1 PUSH1 0x0 MSTORE PUSH1 0x20 PUSH1 0x0 KECCAK256 SWAP1 PUSH1 0x5 MUL ADD PUSH1 0x40 MLOAD DUP1 PUSH1 0xA0 ADD PUSH1 0x40 MSTORE SWAP1 DUP2 PUSH1 0x0 DUP3 ADD SLOAD DUP2 MSTORE PUSH1 0x20 ADD PUSH1 0x1 DUP3 ADD PUSH1 0x0 SWAP1 SLOAD SWAP1 PUSH2 0x100 EXP SWAP1 DIV PUSH1 0xFF AND PUSH1 0x5 DUP2 GT ISZERO PUSH2 0x234 JUMPI PUSH2 0x233 PUSH2 0x4C6 JUMP JUMPDEST JUMPDEST PUSH1 0x5 DUP2 GT ISZERO PUSH2 0x246 JUMPI PUSH2 0x245 PUSH2 0x4C6 JUMP JUMPDEST JUMPDEST DUP2 MSTORE PUSH1 0x20 ADD PUSH1 0x2 DUP3 ADD SLOAD DUP2 MSTORE PUSH1 0x20 ADD PUSH1 0x3 DUP3 ADD DUP1 SLOAD PUSH2 0x264 SWAP1 PUSH2 0xA22 JUMP JUMPDEST DUP1 PUSH1 0x1F ADD PUSH1 0x20 DUP1 SWAP2 DIV MUL PUSH1 0x20 ADD PUSH1 0x40 MLOAD SWAP1 DUP2 ADD PUSH1 0x40 MSTORE DUP1 SWAP3 SWAP2 SWAP1 DUP2 DUP2 MSTORE PUSH1 0x20 ADD DUP3 DUP1 SLOAD PUSH2 0x290 SWAP1 PUSH2 0xA22 JUMP JUMPDEST DUP1 ISZERO PUSH2 0x2DD JUMPI DUP1 PUSH1 0x1F LT PUSH2 0x2B2 JUMPI PUSH2 0x100 DUP1 DUP4 SLOAD DIV MUL DUP4 MSTORE SWAP2 PUSH1 0x20 ADD SWAP2 PUSH2 0x2DD JUMP JUMPDEST DUP3 ADD SWAP2 SWAP1 PUSH1 0x0 MSTORE PUSH1 0x20 PUSH1 0x0 KECCAK256 SWAP1 JUMPDEST DUP2 SLOAD DUP2 MSTORE SWAP1 PUSH1 0x1 ADD SWAP1 PUSH1 0x20 ADD DUP1 DUP4 GT PUSH2 0x2C0 JUMPI DUP3 SWAP1 SUB PUSH1 0x1F AND DUP3 ADD SWAP2 JUMPDEST POP POP POP POP POP DUP2 MSTORE PUSH1 0x20 ADD PUSH1 0x4 DUP3 ADD SLOAD DUP2 MSTORE POP POP DUP2 MSTORE PUSH1 0x20 ADD SWAP1 PUSH1 0x1 ADD SWAP1 PUSH2 0x1E2 JUMP JUMPDEST POP POP POP POP SWAP1 POP SWAP2 SWAP1 POP JUMP JUMPDEST PUSH1 0x0 PUSH1 0x40 MLOAD DUP1 PUSH1 0xA0 ADD PUSH1 0x40 MSTORE DUP1 DUP7 DUP2 MSTORE PUSH1 0x20 ADD DUP6 PUSH1 0x5 DUP2 GT ISZERO PUSH2 0x330 JUMPI PUSH2 0x32F PUSH2 0x4C6 JUMP JUMPDEST JUMPDEST DUP2 MSTORE PUSH1 0x20 ADD DUP5 DUP2 MSTORE PUSH1 0x20 ADD DUP4 DUP2 MSTORE PUSH1 0x20 ADD TIMESTAMP DUP2 MSTORE POP SWAP1 POP PUSH1 0x0 DUP1 DUP7 DUP2 MSTORE PUSH1 0x20 ADD SWAP1 DUP2 MSTORE PUSH1 0x20 ADD PUSH1 0x0 KECCAK256 DUP2 SWAP1 DUP1 PUSH1 0x1 DUP2 SLOAD ADD DUP1 DUP3 SSTORE DUP1 SWAP2 POP POP PUSH1 0x1 SWAP1 SUB SWAP1 PUSH1 0x0 MSTORE PUSH1 0x20 PUSH1 0x0 KECCAK256 SWAP1 PUSH1 0x5 MUL ADD PUSH1 0x0 SWAP1 SWAP2 SWAP1 SWAP2 SWAP1 SWAP2 POP PUSH1 0x0 DUP3 ADD MLOAD DUP2 PUSH1 0x0 ADD SSTORE PUSH1 0x20 DUP3 ADD MLOAD DUP2 PUSH1 0x1 ADD PUSH1 0x0 PUSH2 0x100 EXP DUP2 SLOAD DUP2 PUSH1 0xFF MUL NOT AND SWAP1 DUP4 PUSH1 0x5 DUP2 GT ISZERO PUSH2 0x3B8 JUMPI PUSH2 0x3B7 PUSH2 0x4C6 JUMP JUMPDEST JUMPDEST MUL OR SWAP1 SSTORE POP PUSH1 0x40 DUP3 ADD MLOAD DUP2 PUSH1 0x2 ADD SSTORE PUSH1 0x60 DUP3 ADD MLOAD DUP2 PUSH1 0x3 ADD SWAP1 DUP2 PUSH2 0x3DC SWAP2 SWAP1 PUSH2 0xBFF JUMP JUMPDEST POP PUSH1 0x80 DUP3 ADD MLOAD DUP2 PUSH1 0x4 ADD SSTORE POP POP PUSH32 0xFBD5BF4B946A6309E1AFBA3A1B345DEAE161F8BA506B223F0C9E6DFFB794BF38 DUP6 DUP6 DUP6 DUP6 PUSH1 0x40 MLOAD PUSH2 0x41E SWAP5 SWAP4 SWAP3 SWAP2 SWAP1 PUSH2 0xCD1 JUMP JUMPDEST PUSH1 0x40 MLOAD DUP1 SWAP2 SUB SWAP1 LOG1 POP POP POP POP POP JUMP JUMPDEST PUSH1 0x0 PUSH1 0x40 MLOAD SWAP1 POP SWAP1 JUMP JUMPDEST PUSH1 0x0 DUP1 REVERT JUMPDEST PUSH1 0x0 DUP1 REVERT JUMPDEST PUSH1 0x0 DUP2 SWAP1 POP SWAP2 SWAP1 POP JUMP JUMPDEST PUSH2 0x454 DUP2 PUSH2 0x441 JUMP JUMPDEST DUP2 EQ PUSH2 0x45F JUMPI PUSH1 0x0 DUP1 REVERT JUMPDEST POP JUMP JUMPDEST PUSH1 0x0 DUP2 CALLDATALOAD SWAP1 POP PUSH2 0x471 DUP2 PUSH2 0x44B JUMP JUMPDEST SWAP3 SWAP2 POP POP JUMP JUMPDEST PUSH1 0x0 DUP1 PUSH1 0x40 DUP4 DUP6 SUB SLT ISZERO PUSH2 0x48E JUMPI PUSH2 0x48D PUSH2 0x437 JUMP JUMPDEST JUMPDEST PUSH1 0x0 PUSH2 0x49C DUP6 DUP3 DUP7 ADD PUSH2 0x462 JUMP JUMPDEST SWAP3 POP POP PUSH1 0x20 PUSH2 0x4AD DUP6 DUP3 DUP7 ADD PUSH2 0x462 JUMP JUMPDEST SWAP2 POP POP SWAP3 POP SWAP3 SWAP1 POP JUMP JUMPDEST PUSH2 0x4C0 DUP2 PUSH2 0x441 JUMP JUMPDEST DUP3 MSTORE POP POP JUMP JUMPDEST PUSH32 0x4E487B7100000000000000000000000000000000000000000000000000000000 PUSH1 0x0 MSTORE PUSH1 0x21 PUSH1 0x4 MSTORE PUSH1 0x24 PUSH1 0x0 REVERT JUMPDEST PUSH1 0x6 DUP2 LT PUSH2 0x506 JUMPI PUSH2 0x505 PUSH2 0x4C6 JUMP JUMPDEST JUMPDEST POP JUMP JUMPDEST PUSH1 0x0 DUP2 SWAP1 POP PUSH2 0x517 DUP3 PUSH2 0x4F5 JUMP JUMPDEST SWAP2 SWAP1 POP JUMP JUMPDEST PUSH1 0x0 PUSH2 0x527 DUP3 PUSH2 0x509 JUMP JUMPDEST SWAP1 POP SWAP2 SWAP1 POP JUMP JUMPDEST PUSH2 0x537 DUP2 PUSH2 0x51C JUMP JUMPDEST DUP3 MSTORE POP POP JUMP JUMPDEST PUSH1 0x0 DUP2 MLOAD SWAP1 POP SWAP2 SWAP1 POP JUMP JUMPDEST PUSH1 0x0 DUP3 DUP3 MSTORE PUSH1 0x20 DUP3 ADD SWAP1 POP SWAP3 SWAP2 POP POP JUMP JUMPDEST PUSH1 0x0 JUMPDEST DUP4 DUP2 LT ISZERO PUSH2 0x577 JUMPI DUP1 DUP3 ADD MLOAD DUP2 DUP5 ADD MSTORE PUSH1 0x20 DUP2 ADD SWAP1 POP PUSH2 0x55C JUMP JUMPDEST PUSH1 0x0 DUP5 DUP5 ADD MSTORE POP POP POP POP JUMP JUMPDEST PUSH1 0x0 PUSH1 0x1F NOT PUSH1 0x1F DUP4 ADD AND SWAP1 POP SWAP2 SWAP1 POP JUMP JUMPDEST PUSH1 0x0 PUSH2 0x59F DUP3 PUSH2 0x53D JUMP JUMPDEST PUSH2 0x5A9 DUP2 DUP6 PUSH2 0x548 JUMP JUMPDEST SWAP4 POP PUSH2 0x5B9 DUP2 DUP6 PUSH1 0x20 DUP7 ADD PUSH2 0x559 JUMP JUMPDEST PUSH2 0x5C2 DUP2 PUSH2 0x583 JUMP JUMPDEST DUP5 ADD SWAP2 POP POP SWAP3 SWAP2 POP POP JUMP JUMPDEST PUSH1 0x0 PUSH1 0xA0 DUP3 ADD SWAP1 POP PUSH2 0x5E2 PUSH1 0x0 DUP4 ADD DUP9 PUSH2 0x4B7 JUMP JUMPDEST PUSH2 0x5EF PUSH1 0x20 DUP4 ADD DUP8 PUSH2 0x52E JUMP JUMPDEST PUSH2 0x5FC PUSH1 0x40 DUP4 ADD DUP7 PUSH2 0x4B7 JUMP JUMPDEST DUP2 DUP2 SUB PUSH1 0x60 DUP4 ADD MSTORE PUSH2 0x60E DUP2 DUP6 PUSH2 0x594 JUMP JUMPDEST SWAP1 POP PUSH2 0x61D PUSH1 0x80 DUP4 ADD DUP5 PUSH2 0x4B7 JUMP JUMPDEST SWAP7 SWAP6 POP POP POP POP POP POP JUMP JUMPDEST PUSH1 0x0 PUSH1 0x20 DUP3 DUP5 SUB SLT ISZERO PUSH2 0x63D JUMPI PUSH2 0x63C PUSH2 0x437 JUMP JUMPDEST JUMPDEST PUSH1 0x0 PUSH2 0x64B DUP5 DUP3 DUP6 ADD PUSH2 0x462 JUMP JUMPDEST SWAP2 POP POP SWAP3 SWAP2 POP POP JUMP JUMPDEST PUSH1 0x0 DUP2 MLOAD SWAP1 POP SWAP2 SWAP1 POP JUMP JUMPDEST PUSH1 0x0 DUP3 DUP3 MSTORE PUSH1 0x20 DUP3 ADD SWAP1 POP SWAP3 SWAP2 POP POP JUMP JUMPDEST PUSH1 0x0 DUP2 SWAP1 POP PUSH1 0x20 DUP3 ADD SWAP1 POP SWAP2 SWAP1 POP JUMP JUMPDEST PUSH2 0x689 DUP2 PUSH2 0x441 JUMP JUMPDEST DUP3 MSTORE POP POP JUMP JUMPDEST PUSH2 0x698 DUP2 PUSH2 0x51C JUMP JUMPDEST DUP3 MSTORE POP POP JUMP JUMPDEST PUSH1 0x0 DUP3 DUP3 MSTORE PUSH1 0x20 DUP3 ADD SWAP1 POP SWAP3 SWAP2 POP POP JUMP JUMPDEST PUSH1 0x0 PUSH2 0x6BA DUP3 PUSH2 0x53D JUMP JUMPDEST PUSH2 0x6C4 DUP2 DUP6 PUSH2 0x69E JUMP JUMPDEST SWAP4 POP PUSH2 0x6D4 DUP2 DUP6 PUSH1 0x20 DUP7 ADD PUSH2 0x559 JUMP JUMPDEST PUSH2 0x6DD DUP2 PUSH2 0x583 JUMP JUMPDEST DUP5 ADD SWAP2 POP POP SWAP3 SWAP2 POP POP JUMP JUMPDEST PUSH1 0x0 PUSH1 0xA0 DUP4 ADD PUSH1 0x0 DUP4 ADD MLOAD PUSH2 0x700 PUSH1 0x0 DUP7 ADD DUP3 PUSH2 0x680 JUMP JUMPDEST POP PUSH1 0x20 DUP4 ADD MLOAD PUSH2 0x713 PUSH1 0x20 DUP7 ADD DUP3 PUSH2 0x68F JUMP JUMPDEST POP PUSH1 0x40 DUP4 ADD MLOAD PUSH2 0x726 PUSH1 0x40 DUP7 ADD DUP3 PUSH2 0x680 JUMP JUMPDEST POP PUSH1 0x60 DUP4 ADD MLOAD DUP5 DUP3 SUB PUSH1 0x60 DUP7 ADD MSTORE PUSH2 0x73E DUP3 DUP3 PUSH2 0x6AF JUMP JUMPDEST SWAP2 POP POP PUSH1 0x80 DUP4 ADD MLOAD PUSH2 0x753 PUSH1 0x80 DUP7 ADD DUP3 PUSH2 0x680 JUMP JUMPDEST POP DUP1 SWAP2 POP POP SWAP3 SWAP2 POP POP JUMP JUMPDEST PUSH1 0x0 PUSH2 0x76A DUP4 DUP4 PUSH2 0x6E8 JUMP JUMPDEST SWAP1 POP SWAP3 SWAP2 POP POP JUMP JUMPDEST PUSH1 0x0 PUSH1 0x20 DUP3 ADD SWAP1 POP SWAP2 SWAP1 POP JUMP JUMPDEST PUSH1 0x0 PUSH2 0x78A DUP3 PUSH2 0x654 JUMP JUMPDEST PUSH2 0x794 DUP2 DUP6 PUSH2 0x65F JUMP JUMPDEST SWAP4 POP DUP4 PUSH1 0x20 DUP3 MUL DUP6 ADD PUSH2 0x7A6 DUP6 PUSH2 0x670 JUMP JUMPDEST DUP1 PUSH1 0x0 JUMPDEST DUP6 DUP2 LT ISZERO PUSH2 0x7E2 JUMPI DUP5 DUP5 SUB DUP10 MSTORE DUP2 MLOAD PUSH2 0x7C3 DUP6 DUP3 PUSH2 0x75E JUMP JUMPDEST SWAP5 POP PUSH2 0x7CE DUP4 PUSH2 0x772 JUMP JUMPDEST SWAP3 POP PUSH1 0x20 DUP11 ADD SWAP10 POP POP PUSH1 0x1 DUP2 ADD SWAP1 POP PUSH2 0x7AA JUMP JUMPDEST POP DUP3 SWAP8 POP DUP8 SWAP6 POP POP POP POP POP POP SWAP3 SWAP2 POP POP JUMP JUMPDEST PUSH1 0x0 PUSH1 0x20 DUP3 ADD SWAP1 POP DUP2 DUP2 SUB PUSH1 0x0 DUP4 ADD MSTORE PUSH2 0x80E DUP2 DUP5 PUSH2 0x77F JUMP JUMPDEST SWAP1 POP SWAP3 SWAP2 POP POP JUMP JUMPDEST PUSH1 0x6 DUP2 LT PUSH2 0x823 JUMPI PUSH1 0x0 DUP1 REVERT JUMPDEST POP JUMP JUMPDEST PUSH1 0x0 DUP2 CALLDATALOAD SWAP1 POP PUSH2 0x835 DUP2 PUSH2 0x816 JUMP JUMPDEST SWAP3 SWAP2 POP POP JUMP JUMPDEST PUSH1 0x0 DUP1 REVERT JUMPDEST PUSH1 0x0 DUP1 REVERT JUMPDEST PUSH32 0x4E487B7100000000000000000000000000000000000000000000000000000000 PUSH1 0x0 MSTORE PUSH1 0x41 PUSH1 0x4 MSTORE PUSH1 0x24 PUSH1 0x0 REVERT JUMPDEST PUSH2 0x87D DUP3 PUSH2 0x583 JUMP JUMPDEST DUP2 ADD DUP2 DUP2 LT PUSH8 0xFFFFFFFFFFFFFFFF DUP3 GT OR ISZERO PUSH2 0x89C JUMPI PUSH2 0x89B PUSH2 0x845 JUMP JUMPDEST JUMPDEST DUP1 PUSH1 0x40 MSTORE POP POP POP JUMP JUMPDEST PUSH1 0x0 PUSH2 0x8AF PUSH2 0x42D JUMP JUMPDEST SWAP1 POP PUSH2 0x8BB DUP3 DUP3 PUSH2 0x874 JUMP JUMPDEST SWAP2 SWAP1 POP JUMP JUMPDEST PUSH1 0x0 PUSH8 0xFFFFFFFFFFFFFFFF DUP3 GT ISZERO PUSH2 0x8DB JUMPI PUSH2 0x8DA PUSH2 0x845 JUMP JUMPDEST JUMPDEST PUSH2 0x8E4 DUP3 PUSH2 0x583 JUMP JUMPDEST SWAP1 POP PUSH1 0x20 DUP2 ADD SWAP1 POP SWAP2 SWAP1 POP JUMP JUMPDEST DUP3 DUP2 DUP4 CALLDATACOPY PUSH1 0x0 DUP4 DUP4 ADD MSTORE POP POP POP JUMP JUMPDEST PUSH1 0x0 PUSH2 0x913 PUSH2 0x90E DUP5 PUSH2 0x8C0 JUMP JUMPDEST PUSH2 0x8A5 JUMP JUMPDEST SWAP1 POP DUP3 DUP2 MSTORE PUSH1 0x20 DUP2 ADD DUP5 DUP5 DUP5 ADD GT ISZERO PUSH2 0x92F JUMPI PUSH2 0x92E PUSH2 0x840 JUMP JUMPDEST JUMPDEST PUSH2 0x93A DUP5 DUP3 DUP6 PUSH2 0x8F1 JUMP JUMPDEST POP SWAP4 SWAP3 POP POP POP JUMP JUMPDEST PUSH1 0x0 DUP3 PUSH1 0x1F DUP4 ADD SLT PUSH2 0x957 JUMPI PUSH2 0x956 PUSH2 0x83B JUMP JUMPDEST JUMPDEST DUP2 CALLDATALOAD PUSH2 0x967 DUP5 DUP3 PUSH1 0x20 DUP7 ADD PUSH2 0x900 JUMP JUMPDEST SWAP2 POP POP SWAP3 SWAP2 POP POP JUMP JUMPDEST PUSH1 0x0 DUP1 PUSH1 0x0 DUP1 PUSH1 0x80 DUP6 DUP8 SUB SLT ISZERO PUSH2 0x98A JUMPI PUSH2 0x989 PUSH2 0x437 JUMP JUMPDEST JUMPDEST PUSH1 0x0 PUSH2 0x998 DUP8 DUP3 DUP9 ADD PUSH2 0x462 JUMP JUMPDEST SWAP5 POP POP PUSH1 0x20 PUSH2 0x9A9 DUP8 DUP3 DUP9 ADD PUSH2 0x826 JUMP JUMPDEST SWAP4 POP POP PUSH1 0x40 PUSH2 0x9BA DUP8 DUP3 DUP9 ADD PUSH2 0x462 JUMP JUMPDEST SWAP3 POP POP PUSH1 0x60 DUP6 ADD CALLDATALOAD PUSH8 0xFFFFFFFFFFFFFFFF DUP2 GT ISZERO PUSH2 0x9DB JUMPI PUSH2 0x9DA PUSH2 0x43C JUMP JUMPDEST JUMPDEST PUSH2 0x9E7 DUP8 DUP3 DUP9 ADD PUSH2 0x942 JUMP JUMPDEST SWAP2 POP POP SWAP3 SWAP6 SWAP2 SWAP5 POP SWAP3 POP JUMP JUMPDEST PUSH32 0x4E487B7100000000000000000000000000000000000000000000000000000000 PUSH1 0x0 MSTORE PUSH1 0x22 PUSH1 0x4 MSTORE PUSH1 0x24 PUSH1 0x0 REVERT JUMPDEST PUSH1 0x0 PUSH1 0x2 DUP3 DIV SWAP1 POP PUSH1 0x1 DUP3 AND DUP1 PUSH2 0xA3A JUMPI PUSH1 0x7F DUP3 AND SWAP2 POP JUMPDEST PUSH1 0x20 DUP3 LT DUP2 SUB PUSH2 0xA4D JUMPI PUSH2 0xA4C PUSH2 0x9F3 JUMP JUMPDEST JUMPDEST POP SWAP2 SWAP1 POP JUMP JUMPDEST PUSH1 0x0 DUP2 SWAP1 POP DUP2 PUSH1 0x0 MSTORE PUSH1 0x20 PUSH1 0x0 KECCAK256 SWAP1 POP SWAP2 SWAP1 POP JUMP JUMPDEST PUSH1 0x0 PUSH1 0x20 PUSH1 0x1F DUP4 ADD DIV SWAP1 POP SWAP2 SWAP1 POP JUMP JUMPDEST PUSH1 0x0 DUP3 DUP3 SHL SWAP1 POP SWAP3 SWAP2 POP POP JUMP JUMPDEST PUSH1 0x0 PUSH1 0x8 DUP4 MUL PUSH2 0xAB5 PUSH32 0xFFFFFFFFFFFFFFFFFFFFFFFFFFFFFFFFFFFFFFFFFFFFFFFFFFFFFFFFFFFFFFFF DUP3 PUSH2 0xA78 JUMP JUMPDEST PUSH2 0xABF DUP7 DUP4 PUSH2 0xA78 JUMP JUMPDEST SWAP6 POP DUP1 NOT DUP5 AND SWAP4 POP DUP1 DUP7 AND DUP5 OR SWAP3 POP POP POP SWAP4 SWAP3 POP POP POP JUMP JUMPDEST PUSH1 0x0 DUP2 SWAP1 POP SWAP2 SWAP1 POP JUMP JUMPDEST PUSH1 0x0 PUSH2 0xAFC PUSH2 0xAF7 PUSH2 0xAF2 DUP5 PUSH2 0x441 JUMP JUMPDEST PUSH2 0xAD7 JUMP JUMPDEST PUSH2 0x441 JUMP JUMPDEST SWAP1 POP SWAP2 SWAP1 POP JUMP JUMPDEST PUSH1 0x0 DUP2 SWAP1 POP SWAP2 SWAP1 POP JUMP JUMPDEST PUSH2 0xB16 DUP4 PUSH2 0xAE1 JUMP JUMPDEST PUSH2 0xB2A PUSH2 0xB22 DUP3 PUSH2 0xB03 JUMP JUMPDEST DUP5 DUP5 SLOAD PUSH2 0xA85 JUMP JUMPDEST DUP3 SSTORE POP POP POP POP JUMP JUMPDEST PUSH1 0x0 SWAP1 JUMP JUMPDEST PUSH2 0xB3F PUSH2 0xB32 JUMP JUMPDEST PUSH2 0xB4A DUP2 DUP5 DUP5 PUSH2 0xB0D JUMP JUMPDEST POP POP POP JUMP JUMPDEST JUMPDEST DUP2 DUP2 LT ISZERO PUSH2 0xB6E JUMPI PUSH2 0xB63 PUSH1 0x0 DUP3 PUSH2 0xB37 JUMP JUMPDEST PUSH1 0x1 DUP2 ADD SWAP1 POP PUSH2 0xB50 JUMP JUMPDEST POP POP JUMP JUMPDEST PUSH1 0x1F DUP3 GT ISZERO PUSH2 0xBB3 JUMPI PUSH2 0xB84 DUP2 PUSH2 0xA53 JUMP JUMPDEST PUSH2 0xB8D DUP5 PUSH2 0xA68 JUMP JUMPDEST DUP2 ADD PUSH1 0x20 DUP6 LT ISZERO PUSH2 0xB9C JUMPI DUP2 SWAP1 POP JUMPDEST PUSH2 0xBB0 PUSH2 0xBA8 DUP6 PUSH2 0xA68 JUMP JUMPDEST DUP4 ADD DUP3 PUSH2 0xB4F JUMP JUMPDEST POP POP JUMPDEST POP POP POP JUMP JUMPDEST PUSH1 0x0 DUP3 DUP3 SHR SWAP1 POP SWAP3 SWAP2 POP POP JUMP JUMPDEST PUSH1 0x0 PUSH2 0xBD6 PUSH1 0x0 NOT DUP5 PUSH1 0x8 MUL PUSH2 0xBB8 JUMP JUMPDEST NOT DUP1 DUP4 AND SWAP2 POP POP SWAP3 SWAP2 POP POP JUMP JUMPDEST PUSH1 0x0 PUSH2 0xBEF DUP4 DUP4 PUSH2 0xBC5 JUMP JUMPDEST SWAP2 POP DUP3 PUSH1 0x2 MUL DUP3 OR SWAP1 POP SWAP3 SWAP2 POP POP JUMP JUMPDEST PUSH2 0xC08 DUP3 PUSH2 0x53D JUMP JUMPDEST PUSH8 0xFFFFFFFFFFFFFFFF DUP2 GT ISZERO PUSH2 0xC21 JUMPI PUSH2 0xC20 PUSH2 0x845 JUMP JUMPDEST JUMPDEST PUSH2 0xC2B DUP3 SLOAD PUSH2 0xA22 JUMP JUMPDEST PUSH2 0xC36 DUP3 DUP3 DUP6 PUSH2 0xB72 JUMP JUMPDEST PUSH1 0x0 PUSH1 0x20 SWAP1 POP PUSH1 0x1F DUP4 GT PUSH1 0x1 DUP2 EQ PUSH2 0xC69 JUMPI PUSH1 0x0 DUP5 ISZERO PUSH2 0xC57 JUMPI DUP3 DUP8 ADD MLOAD SWAP1 POP JUMPDEST PUSH2 0xC61 DUP6 DUP3 PUSH2 0xBE3 JUMP JUMPDEST DUP7 SSTORE POP PUSH2 0xCC9 JUMP JUMPDEST PUSH1 0x1F NOT DUP5 AND PUSH2 0xC77 DUP7 PUSH2 0xA53 JUMP JUMPDEST PUSH1 0x0 JUMPDEST DUP3 DUP2 LT ISZERO PUSH2 0xC9F JUMPI DUP5 DUP10 ADD MLOAD DUP3 SSTORE PUSH1 0x1 DUP3 ADD SWAP2 POP PUSH1 0x20 DUP6 ADD SWAP5 POP PUSH1 0x20 DUP2 ADD SWAP1 POP PUSH2 0xC7A JUMP JUMPDEST DUP7 DUP4 LT ISZERO PUSH2 0xCBC JUMPI DUP5 DUP10 ADD MLOAD PUSH2 0xCB8 PUSH1 0x1F DUP10 AND DUP3 PUSH2 0xBC5 JUMP JUMPDEST DUP4 SSTORE POP JUMPDEST PUSH1 0x1 PUSH1 0x2 DUP9 MUL ADD DUP9 SSTORE POP POP POP JUMPDEST POP POP POP POP POP POP JUMP JUMPDEST PUSH1 0x0 PUSH1 0x80 DUP3 ADD SWAP1 POP PUSH2 0xCE6 PUSH1 0x0 DUP4 ADD DUP8 PUSH2 0x4B7 JUMP JUMPDEST PUSH2 0xCF3 PUSH1 0x20 DUP4 ADD DUP7 PUSH2 0x52E JUMP JUMPDEST PUSH2 0xD00 PUSH1 0x40 DUP4 ADD DUP6 PUSH2 0x4B7 JUMP JUMPDEST DUP2 DUP2 SUB PUSH1 0x60 DUP4 ADD MSTORE PUSH2 0xD12 DUP2 DUP5 PUSH2 0x594 JUMP JUMPDEST SWAP1 POP SWAP6 SWAP5 POP POP POP POP POP JUMP INVALID LOG2 PUSH5 0x6970667358 0x22 SLT KECCAK256 0xAE 0xBF PUSH22 0x98A273BA5162F2A3B9B2EDB517BA26A39D03765C78F2 0xE0 DUP1 SAR BLOBBASEFEE 0xAA SAR CALLCODE PUSH5 0x736F6C6343 STOP ADDMOD XOR STOP CALLER "},"methodIdentifiers":{"getLoanEvents(uint256)":"39462331","loanHistory(uint256,uint256)":"375d2eea","logLoan(uint256,uint8,uint256,string)":"f69d0c4f"}}}}}