{
  "_format": "hh-sol-artifact-1",
  "contractName": "StudentMicroloan",
  "sourceName": "contracts/StudentMicroloan.sol",
  "abi": [
    {
      "anonymous": false,
      "inputs": [
        {
          "indexed": false,
          "internalType": "uint256",
          "name": "loanId",
          "type": "uint256"
        },
        {
          "indexed": false,
          "internalType": "enum StudentMicroloan.LoanAction",
          "name": "action",
          "type": "uint8"
        },
        {
          "indexed": false,
          "internalType": "uint256",
          "name": "amount",
          "type": "uint256"
        },
        {
          "indexed": false,
          "internalType": "string",
          "name": "status",
          "type": "string"
        }
      ],
      "name": "LoanLogged",
      "type": "event"
    },
    {
      "inputs": [
        {
          "internalType": "uint256",
          "name": "loanId",
          "type": "uint256"
        }
      ],
      "name": "getLoanEvents",
      "outputs": [
        {
          "components": [
            {
              "internalType": "uint256",
              "name": "loanId",
              "type": "uint256"
            },
            {
              "internalType": "enum StudentMicroloan.LoanAction",
              "name": "action",
              "type": "uint8"
            },
            {
              "internalType": "uint256",
              "name": "amount",
              "type": "uint256"
            },
            {
              "internalType": "string",
              "name": "status",
              "type": "string"
            },
            {
              "internalType": "uint256",
              "name": "timestamp",
              "type": "uint256"
            }
          ],
          "internalType": "struct StudentMicroloan.LoanEvent[]",
          "name": "",
          "type": "tuple[]"
        }
      ],
      "stateMutability": "view",
      "type": "function"
    },
    {
      "inputs": [
        {
          "internalType": "uint256",
          "name": "",
          "type": "uint256"
        },
        {
          "internalType": "uint256",
          "name": "",
          "type": "uint256"
        }
      ],
      "name": "loanHistory",
      "outputs": [
        {
          "internalType": "uint256",
          "name": "loanId",
          "type": "uint256"
        },
        {
          "internalType": "enum StudentMicroloan.LoanAction",
          "name": "action",
          "type": "uint8"
        },
        {
          "internalType": "uint256",
          "name": "amount",
          "type": "uint256"
        },
        {
          "internalType": "string",
          "name": "status",
          "type": "string"
        },
        {
          "internalType": "uint256",
          "name": "timestamp",
          "type": "uint256"
        }
      ],
      "stateMutability": "view",
      "type": "function"
    },
    {
      "inputs": [
        {
          "internalType": "uint256",
          "name": "loanId",
          "type": "uint256"
        },
        {
          "internalType": "enum StudentMicroloan.LoanAction",
          "name": "action",
          "type": "uint8"
        },
        {
          "internalType": "uint256",
          "name": "amount",
          "type": "uint256"
        },
        {
          "internalType": "string",
          "name": "status",
          "type": "string"
        }
      ],
      "name": "logLoan",
      "outputs": [],
      "stateMutability": "nonpayable",
      "type": "function"
    }
  ],
  "bytecode": "0x608060405234801561001057600080fd5b50610d53806100206000396000f3fe608060405234801561001057600080fd5b50600436106100415760003560e01c8063375d2eea14610046578063394623311461007a578063f69d0c4f146100aa575b600080fd5b610060600480360381019061005b9190610477565b6100c6565b6040516100719594939291906105cd565b60405180910390f35b610094600480360381019061008f9190610627565b6101ae565b6040516100a191906107f4565b60405180910390f35b6100c460048036038101906100bf9190610970565b61030a565b005b600060205281600052604060002081815481106100e257600080fd5b9060005260206000209060050201600091509150508060000154908060010160009054906101000a900460ff169080600201549080600301805461012590610a22565b80601f016020809104026020016040519081016040528092919081815260200182805461015190610a22565b801561019e5780601f106101735761010080835404028352916020019161019e565b820191906000526020600020905b81548152906001019060200180831161018157829003601f168201915b5050505050908060040154905085565b6060600080838152602001908152602001600020805480602002602001604051908101604052809291908181526020016000905b828210156102ff57838290600052602060002090600502016040518060a0016040529081600082015481526020016001820160009054906101000a900460ff166005811115610234576102336104c6565b5b6005811115610246576102456104c6565b5b81526020016002820154815260200160038201805461026490610a22565b80601f016020809104026020016040519081016040528092919081815260200182805461029090610a22565b80156102dd5780601f106102b2576101008083540402835291602001916102dd565b820191906000526020600020905b8154815290600101906020018083116102c057829003601f168201915b50505050508152602001600482015481525050815260200190600101906101e2565b505050509050919050565b60006040518060a001604052808681526020018560058111156103305761032f6104c6565b5b81526020018481526020018381526020014281525090506000808681526020019081526020016000208190806001815401808255809150506001900390600052602060002090600502016000909190919091506000820151816000015560208201518160010160006101000a81548160ff021916908360058111156103b8576103b76104c6565b5b02179055506040820151816002015560608201518160030190816103dc9190610bff565b506080820151816004015550507ffbd5bf4b946a6309e1afba3a1b345deae161f8ba506b223f0c9e6dffb794bf388585858560405161041e9493929190610cd1565b60405180910390a15050505050565b6000604051905090565b600080fd5b600080fd5b6000819050919050565b61045481610441565b811461045f57600080fd5b50565b6000813590506104718161044b565b92915050565b6000806040838503121561048e5761048d610437565b5b600061049c85828601610462565b92505060206104ad85828601610462565b9150509250929050565b6104c081610441565b82525050565b7f4e487b7100000000000000000000000000000000000000000000000000000000600052602160045260246000fd5b60068110610506576105056104c6565b5b50565b6000819050610517826104f5565b919050565b600061052782610509565b9050919050565b6105378161051c565b82525050565b600081519050919050565b600082825260208201905092915050565b60005b8381101561057757808201518184015260208101905061055c565b60008484015250505050565b6000601f19601f8301169050919050565b600061059f8261053d565b6105a98185610548565b93506105b9818560208601610559565b6105c281610583565b840191505092915050565b600060a0820190506105e260008301886104b7565b6105ef602083018761052e565b6105fc60408301866104b7565b818103606083015261060e8185610594565b905061061d60808301846104b7565b9695505050505050565b60006020828403121561063d5761063c610437565b5b600061064b84828501610462565b91505092915050565b600081519050919050565b600082825260208201905092915050565b6000819050602082019050919050565b61068981610441565b82525050565b6106988161051c565b82525050565b600082825260208201905092915050565b60006106ba8261053d565b6106c4818561069e565b93506106d4818560208601610559565b6106dd81610583565b840191505092915050565b600060a0830160008301516107006000860182610680565b506020830151610713602086018261068f565b5060408301516107266040860182610680565b506060830151848203606086015261073e82826106af565b91505060808301516107536080860182610680565b508091505092915050565b600061076a83836106e8565b905092915050565b6000602082019050919050565b600061078a82610654565b610794818561065f565b9350836020820285016107a685610670565b8060005b858110156107e257848403895281516107c3858261075e565b94506107ce83610772565b925060208a019950506001810190506107aa565b50829750879550505050505092915050565b6000602082019050818103600083015261080e818461077f565b905092915050565b6006811061082357600080fd5b50565b60008135905061083581610816565b92915050565b600080fd5b600080fd5b7f4e487b7100000000000000000000000000000000000000000000000000000000600052604160045260246000fd5b61087d82610583565b810181811067ffffffffffffffff8211171561089c5761089b610845565b5b80604052505050565b60006108af61042d565b90506108bb8282610874565b919050565b600067ffffffffffffffff8211156108db576108da610845565b5b6108e482610583565b9050602081019050919050565b82818337600083830152505050565b600061091361090e846108c0565b6108a5565b90508281526020810184848401111561092f5761092e610840565b5b61093a8482856108f1565b509392505050565b600082601f8301126109575761095661083b565b5b8135610967848260208601610900565b91505092915050565b6000806000806080858703121561098a57610989610437565b5b600061099887828801610462565b94505060206109a987828801610826565b93505060406109ba87828801610462565b925050606085013567ffffffffffffffff8111156109db576109da61043c565b5b6109e787828801610942565b91505092959194509250565b7f4e487b7100000000000000000000000000000000000000000000000000000000600052602260045260246000fd5b60006002820490506001821680610a3a57607f821691505b602082108103610a4d57610a4c6109f3565b5b50919050565b60008190508160005260206000209050919050565b60006020601f8301049050919050565b600082821b905092915050565b600060088302610ab57fffffffffffffffffffffffffffffffffffffffffffffffffffffffffffffffff82610a78565b610abf8683610a78565b95508019841693508086168417925050509392505050565b6000819050919050565b6000610afc610af7610af284610441565b610ad7565b610441565b9050919050565b6000819050919050565b610b1683610ae1565b610b2a610b2282610b03565b848454610a85565b825550505050565b600090565b610b3f610b32565b610b4a818484610b0d565b505050565b5b81811015610b6e57610b63600082610b37565b600181019050610b50565b5050565b601f821115610bb357610b8481610a53565b610b8d84610a68565b81016020851015610b9c578190505b610bb0610ba885610a68565b830182610b4f565b50505b505050565b600082821c905092915050565b6000610bd660001984600802610bb8565b1980831691505092915050565b6000610bef8383610bc5565b9150826002028217905092915050565b610c088261053d565b67ffffffffffffffff811115610c2157610c20610845565b5b610c2b8254610a22565b610c36828285610b72565b600060209050601f831160018114610c695760008415610c57578287015190505b610c618582610be3565b865550610cc9565b601f198416610c7786610a53565b60005b82811015610c9f57848901518255600182019150602085019450602081019050610c7a565b86831015610cbc5784890151610cb8601f891682610bc5565b8355505b6001600288020188555050505b505050505050565b6000608082019050610ce660008301876104b7565b610cf3602083018661052e565b610d0060408301856104b7565b8181036060830152610d128184610594565b90509594505050505056fea2646970667358221220aebf7598a273ba5162f2a3b9b2edb517ba26a39d03765c78f2e0801d4aaa1df264736f6c63430008180033",
  "linkReferences": {},
  "deployedLinkReferences": {}
}